:100000000C94D7030C94FF030C94FF030C94FF0390
:100010000C94FF030C94FF030C94FF030C94FF0358
:100020000C94FF030C94FF030C94E7160C945917DF
:100030000C94FF030C94FF030C94FF030C94FF0338
:100040000C94FF030C94FF030C94FF030C94FF0328
:100050000C94FF030C94FF030C94FF030C941E1BE1
:100060000C94FF030C949B1F0C94751F0C94FF03BE
:100070000C94FF030C94FF030C94FF030C94FF03F8
:100080000C94FF030C94FF030C94FF030C94FF03E8
:100090000C94EA250C94FF030C94FF030C94FF03CB
:1000A0000C94FF030C94FF030C94FF03C219C519B1
:1000B000B419B819BC19E619E619E619C919CD1908
:1000C000D119D719DB19E619E1194E414E494E49AC
:1000D0005459494E46CDCCCC3D0AD7233C17B7D115
:1000E0003877CC2B329595E6241FB14F0A000020BB
:1000F000410000C84200401C4620BCBE4CCA1B0E3A
:100100005AAEC59D7472756E2D6272696467650A18
:10011000000A000A0000000000240027002A002D29
:100120000030000000000200090F0000030401007D
:100130000C000000000000000000000000000000B3
:100140000000080B00020202010009040000010285
:10015000020000052400100105240101010424020D
:10016000060524060001070581031000400904016B
:1001700000020A0000000705020240000007058394
:10018000024000000403090412010002EF020140D2
:100190004123410000010102030141726475696E4F
:1001A0006F204C4C430041726475696E6F20597525
:1001B0006E0048756D69643A2000250050726563D1
:1001C00069703A200025005072656369703A20001A
:1001D000202020494E444F4F52002020544F4D4F75
:1001E00052524F570020202020544F44415900EFD5
:1001F00003038002CF0300C130ED0464031281E8E1
:1002000003850078CB05392C003402F70120EA027F
:100210000000C00123C10110C5023E28C701863677
:1002200001483701003A0155B1020018B6030882AF
:1002300027F20100260101E00F0F312B0C0E084EB2
:10024000F1370710030E0900E10F000E1403110728
:1002500031C148080F0C31360F1180298000040885
:1002600002011040804010204080408008020401BC
:10027000804020100201108010204040200000002B
:1002800000250028002B002E003100040404040483
:100290000304050202020204030202020206060629
:1002A0000606060404020202040400000000003EE8
:1002B0005B4F5B3E3E6B4F6B3E1C3E7C3E1C183CD6
:1002C0007E3C181C577D571C1C5E7F5E1C00183C32
:1002D0001800FFE7C3E7FF0018241800FFE7DBE77B
:1002E000FF30483A060E2629792926407F05050762
:1002F000407F05253F5A3CE73C5A7F3E1C1C0808BE
:100300001C1C3E7F14227F22145F5F005F5F060982
:100310007F017F006689956A606060606094A2FFDB
:10032000A29408047E040810207E201008082A1CCD
:1003300008081C2A08081E101010100C1E0C1E0C99
:1003400030383E3830060E3E0E0600000000000039
:10035000005F00000007000700147F147F14242AA8
:100360007F2A12231308646236495620500008077A
:100370000300001C2241000041221C002A1C7F1C9B
:100380002A08083E0808008070300008080808089D
:10039000000060600020100804023E5149453E0004
:1003A000427F400072494949462141494D33181462
:1003B000127F1027454545393C4A494931412111B1
:1003C00009073649494936464949291E00001400A3
:1003D00000004034000000081422411414141414C6
:1003E000004122140802015909063E415D594E7C24
:1003F0001211127C7F494949363E414141227F41D9
:1004000041413E7F494949417F090909013E414136
:1004100051737F0808087F00417F41002040413F21
:10042000017F081422417F404040407F021C027F30
:100430007F0408107F3E4141413E7F090909063E85
:100440004151215E7F091929462649494932030154
:100450007F01033F4040403F1F2040201F3F403866
:10046000403F631408146303047804036159494D41
:1004700043007F4141410204081020004141417F77
:1004800004020102044040404040000307080020ED
:10049000545478407F2844443838444444283844ED
:1004A00044287F385454541800087E090218A4A424
:1004B0009C787F0804047800447D40002040403D43
:1004C000007F1028440000417F40007C04780478BD
:1004D0007C080404783844444438FC182424181850
:1004E000242418FC7C0804040848545454240404AC
:1004F0003F44243C4040207C1C2040201C3C403099
:10050000403C44281028444C9090907C4464544CC7
:100510004400083641000000770000004136080022
:1005200002010204023C2623263C1EA1A161123ACC
:100530004040207A38545455592155557941225418
:10054000547842215554784020545579400C1E521D
:1005500072123955555559395454545939555454C2
:10056000580000457C410002457D420001457C4029
:100570007D1211127DF0282528F07C54554500206D
:1005800054547C547C0A097F4932494949323A44DF
:1005900044443A324A4848303A4141217A3A42404A
:1005A0002078009DA0A07D3D4242423D3D4040401C
:1005B0003D3C24FF2424487E4943662B2FFC2F2BEF
:1005C000FF0929F620C0887E090320545479410090
:1005D00000447D413048484A32384040227A007A0F
:1005E0000A0A727D0D19317D2629292F28262929ED
:1005F000292630484D40203808080808080808080F
:10060000382F10C8ACBA2F102834FA00007B000035
:1006100008142A142222142A14085500550055AA39
:1006200055AA55AAFF55FF55FF000000FF00101006
:1006300010FF00141414FF001010FF00FF1010F042
:1006400010F0141414FC001414F700FF0000FF0055
:10065000FF1414F404FC141417101F10101F101FA3
:100660001414141F00101010F0000000001F1010D0
:1006700010101F10101010F010000000FF101010CC
:10068000101010101010FF10000000FF140000FFE9
:1006900000FF00001F10170000FC04F414141710D2
:1006A000171414F404F40000FF00F71414141414C5
:1006B0001414F700F7141414171410101F101F143B
:1006C0001414F4141010F010F000001F101F00009C
:1006D000001F14000000FC140000F010F01010FFC8
:1006E00010FF141414FF141010101F00000000F06D
:1006F00010FFFFFFFFFFF0F0F0F0F0FFFFFF000042
:10070000000000FFFF0F0F0F0F0F3844443844FC68
:100710004A4A4A347E02020606027E027E0263557F
:100720004941633844443C04407E201E2006027E3A
:10073000020299A5E7A5991C2A492A1C4C7201724C
:100740004C304A4D4D303048784830BC625A463DB6
:100750003E494949007E0101017E2A2A2A2A2A446B
:10076000445F444440514A444040444A51400000A0
:10077000FF0103E080FF000008086B6B08361236AB
:100780002436060F090F060000181800000010108C
:10079000003040FF0101001F01011E00191D17124A
:1007A000003C3C3C3C00000000007B2B632B1124F0
:1007B0001FBECFEFDAE0DEBFCDBF25E0AEE6B3E08F
:1007C00001C01D92A63FB207E1F713E0A0E0B1E03F
:1007D000E4EBF5E602C005900D92AE36B107D9F70D
:1007E00013E0C6EDD3E004C02197FE010E9406305D
:1007F000C53DD107C9F70E9461270C94CD320C94F6
:1008000000000895FC016370668B848195812681C8
:100810003781613039F0633029F0918780873387E1
:1008200022870895318720879387828708956F9262
:100830007F928F929F92AF92BF92CF92DF92EF9270
:10084000FF920F931F93CF93DF93EC014B015A015B
:1008500069013801E881F9810284F385E02D099569
:10086000E881F9810288F389E02D87019601A501CD
:10087000B401CE010995A501460D571D41505109FE
:10088000E881F9810288F389E02D9601B401CE0157
:100890000995E881F9810088F189E02D9301A5018E
:1008A000B401CE010995C80CD91CB601615071097B
:1008B000E881F9810088F189E02D9301A501CE013D
:1008C0000995E881F9810688F789E02DCE01DF914D
:1008D000CF911F910F91FF90EF90DF90CF90BF903D
:1008E000AF909F908F907F906F9009948F929F927E
:1008F000AF92BF92CF92DF92EF92FF920F931F932E
:10090000CF93DF934C016B015A01E901DC01ED91BA
:10091000FC916217730781F40417150724F48B2DDB
:100920005801042F182F0A191B0998012F5F3F4FF8
:10093000048CF58DE02D12C04017510709F52617DC
:10094000370724F48D2D6901C62FD82F9E012C194D
:100950003D092F5F3F4F068CF78DE02D8701A501E4
:10096000B601C4010995DF91CF911F910F91FF90BE
:10097000EF90DF90CF90BF90AF909F908F900895B1
:100980000284F385E02D0995D401ED91FC91048852
:10099000F589E02D9E01A501B601C4010995D40198
:1009A000ED91FC910688F789E02DC401DF91CF918C
:1009B0001F910F91FF90EF90DF90CF90BF90AF907D
:1009C0009F908F900994EF92FF920F931F93DC01F9
:1009D0001A960D911C911B9718962D913C91199781
:1009E000ED91FC9100A0F1A1E02D7B0140E050E0F1
:1009F00060E070E009951F910F91FF90EF900895CE
:100A00004F925F926F927F928F929F92AF92BF921E
:100A1000CF92DF92EF92FF920F931F93CF93DF93CA
:100A20006C012B015A0139014801DC01ED91FC9167
:100A30000284F385E02D0995E201640C751CD60152
:100A4000ED91FC91C615D7055CF40088F189E02D85
:100A500087019401A501BE01C60109952196EFCF3A
:100A60000688F789E02DC601DF91CF911F910F9184
:100A7000FF90EF90DF90CF90BF90AF909F908F90BE
:100A80007F906F905F904F9009948F929F92AF925A
:100A9000BF92CF92DF92EF92FF920F931F93CF936B
:100AA000DF93EC015B014A016901E881F98102846D
:100AB000F385E02D099595012C0D3D1D215031093F
:100AC000E881F9810488F589E02D78018401A40189
:100AD000B501CE010995E881F9810688F789E02DF5
:100AE000CE01DF91CF911F910F91FF90EF90DF909A
:100AF000CF90BF90AF909F908F9009948F929F92CC
:100B0000AF92BF92CF92DF92EF92FF920F931F931B
:100B1000CF93DF93EC015B014A0169017801E88121
:100B2000F9810284F385E02D0995C80CD91C860152
:100B300001501109E881F9810488F589E02D9501BA
:100B4000A401B501CE010995E881F9810688F789EC
:100B5000E02DCE01DF91CF911F910F91FF90EF908B
:100B6000DF90CF90BF90AF909F908F900994EF92BD
:100B7000FF920F931F93DC01ED91FC9100A0F1A176
:100B8000E02D09951F910F91FF90EF9008950F931D
:100B90001F93DC01ED91FC91068CF78DE02D0995FA
:100BA0001F910F9108950F931F93DC01ED91FC911C
:100BB000048CF58DE02D09951F910F910895DC01AE
:100BC000ED91FC910084F185E02D09942F923F92E4
:100BD0004F925F926F927F928F929F92AF92BF924D
:100BE000CF92DF92EF92FF920F931F93CF93DF93F9
:100BF00000D000D000D0CDB7DEB72C017E836D834E
:100C00006A015901C801FC82EB824801841A950AE5
:100C100097FE03C091948194910835012D813E8106
:100C2000621A730A77FE03C07194619471086814A4
:100C300079045CF43A2D2B2D5C01832F922F3D819A
:100C40002E81DE82CD82C32ED22EAD81BE81AA1628
:100C5000BB065CF43C2D2D2D6C01832F922F3D8122
:100C60002E81BE82AD82A32EB22E85012D813E81C2
:100C7000021B130B1C012C183D0837FE03C03194D6
:100C800021943108780117FF03C03FEFE31AF30AFC
:100C9000F594E794C816D9062CF08FEF9FEF9A834E
:100CA000898304C0A1E0B0E0BA83A9832D813E818D
:100CB000A216B30624F1D201ED91FC910484F585CE
:100CC000E02D2B813C816814790424F44D815E81F0
:100CD000B60103C0A6016D817E81C2010995E218AB
:100CE000F308F7FE06C029813A81C20ED31EE00E3A
:100CF000F11E8D819E8101969E838D83D7CF26968E
:100D00000FB6F894DEBF0FBECDBFDF91CF911F911C
:100D10000F91FF90EF90DF90CF90BF90AF909F909A
:100D20008F907F906F905F904F903F902F9008959D
:100D30008F929F92AF92BF92CF92DF92EF92FF92EB
:100D40000F931F93CF93DF935C014B016A01E9017D
:100D500077FD53C0DC0118968D919C911997681707
:100D600079070CF04AC0209709F447C037FF07C045
:100D7000C9010196C80ED91ED195C195D109F501B9
:100D800082859385C816D906C4F5A6014C0F5D1F50
:100D90009A012150310937FD30C0D7FE03C0EA0166
:100DA000C12CD12C281739071CF0EC01CC19DD0916
:100DB000D501ED91FC910284F385E02DC5010995E3
:100DC00078018E0121E030E0A601B401C5010E9446
:100DD000700DD501ED91FC910688F789E02DC501D4
:100DE000DF91CF911F910F91FF90EF90DF90CF9007
:100DF000BF90AF909F908F900994DF91CF911F91FA
:100E00000F91FF90EF90DF90CF90BF90AF909F90A9
:100E10008F9008958F929F92AF92BF92CF92DF9260
:100E2000EF92FF920F931F93CF93DF935C016B01BF
:100E30004A01E90157FD53C0DC011A968D919C913E
:100E40001B97481759070CF04AC0209709F447C070
:100E500037FF07C0C9010196C80ED91ED195C195AB
:100E6000D109F50180859185C816D906C4F5A6017A
:100E70004C0F5D1F9A012150310937FD30C0D7FE5C
:100E800003C0EA01C12CD12C281739071CF0EC0152
:100E9000CC19DD09D501ED91FC910284F385E02D9B
:100EA000C5010995780101E010E09E01A401B60199
:100EB000C5010E94700DD501ED91FC910688F7895E
:100EC000E02DC501DF91CF911F910F91FF90EF9021
:100ED000DF90CF90BF90AF909F908F900994DF915B
:100EE000CF911F910F91FF90EF90DF90CF90BF9027
:100EF000AF909F908F9008958F929F92AF92BF92E4
:100F0000CF92DF92EF92FF920F931F93CF93DF93D5
:100F10004C016B015A01E901209709F46CC00115DD
:100F2000110509F468C037FF07C0C9010196C80E52
:100F3000D91ED195C195D109F401A085B185CA16F4
:100F4000DB060CF058C017FF07C0C8010196A80EB9
:100F5000B91E119501951109F40182859385A81692
:100F6000B9060CF048C0F601EC0FFD1FAF0141506F
:100F7000510957FD40C0B501600F711F9B01215001
:100F8000310937FD38C0D7FE03C0EF01C12CD12C89
:100F9000B7FE03C08B01A12CB12C4A175B071CF0D4
:100FA000ED01CC19DD09281739071CF08C010A194D
:100FB0001B09D401ED91FC910284F385E02DC4015D
:100FC00009959E01A501B601C4010E94700DD401CE
:100FD000ED91FC910688F789E02DC401DF91CF9156
:100FE0001F910F91FF90EF90DF90CF90BF90AF9047
:100FF0009F908F900994DF91CF911F910F91FF9057
:10100000EF90DF90CF90BF90AF909F908F9008951A
:10101000EF92FF920F931F93CF93DF9377FD34C02E
:10102000DC011896ED91FC9119976E177F0764F516
:101030002115310549F137FF07C0F90131964E0FEF
:101040005F1F319521953109DC011A96ED91FC91D4
:101050001B974E175F07C4F4EA01C20FD31FDE01CE
:101060001197B7FD11C057FF03C09E0140E050E04B
:10107000AE17BF071CF09F01241B350B78018901B7
:1010800021E030E00E94700DDF91CF911F910F9110
:10109000FF90EF900895EF92FF920F931F93CF93DD
:1010A000DF9357FD33C0DC011A96ED91FC911B973D
:1010B0004E175F075CF52115310541F137FF07C079
:1010C000F90131966E0F7F1F319521953109DC01B1
:1010D0001896ED91FC9119976E177F07BCF4EB0100
:1010E000C20FD31FDE011197B7FD10C077FF03C0F9
:1010F0009E0160E070E0AE17BF071CF09F01261B49
:10110000370B780101E010E00E94700DDF91CF9164
:101110001F910F91FF90EF9008958F929F92AF9241
:10112000BF92CF92DF92EF92FF920F931F93CF93D4
:10113000DF9347012115310509F44DC00115110553
:1011400009F449C037FF07C0F90131966E0F7F1FC0
:10115000319521953109DC011896AD90BC90199715
:101160006A157B05C4F517FF07C0F80131964E0FCD
:101170005F1F119501951109DC011A96ED91FC9103
:101180001B974E175F073CF56B01C20ED31EE6019D
:101190002197D7FD20C07A01E00EF11ED7011197EB
:1011A000B7FD19C077FF03C0960160E070E057FFFC
:1011B00003C0870140E050E0CA15DB051CF0950133
:1011C000261B370BAE17BF071CF08F01041B150B36
:1011D00074010E94700DDF91CF911F910F91FF90CC
:1011E000EF90DF90CF90BF90AF909F908F90089539
:1011F0008F929F92AF92CF92EF92FF920F931F9395
:10120000CF93DF93EC01262F898D9A8D009709F0FB
:1012100042C06A3059F41D861C862D898E859F85B3
:1012200038E0239F800D911D112443C06D3009F4D7
:10123000AAC08F898823C9F03C898C859D8546E0AA
:10124000349F800D911D11244885598548175907F1
:1012500064F41D861C863D898E859F8548E0349FF9
:10126000800D911D11249F878E87EA88FB8808894D
:1012700019894E855F856C857D85AD88CC88CE01CA
:101280000E9477232C898C859D8536E0239F800DD5
:10129000911D11243EC06A3079F41D861C862D896B
:1012A000FC013696E4918E859F852E9F800D911DC1
:1012B00011249F878E8767C06D3009F464C0FC01DC
:1012C00034963491631708F45EC03196E491E617C2
:1012D00008F459C0462F431B342FFC0132968590E9
:1012E000949047E0349F800C911C1124F4013296B5
:1012F00034913196E491332311F0E1110DC0F401E2
:101300003496E4912C898C859D85E29F800D911DFA
:1013100011249D878C8737C0F401359644915F89ED
:10132000552319F15C89E32FF0E0E40FF11D47FD2F
:10133000FA955E9FB0015F9F700D11244C855D850D
:10134000460F571F688579856417750774F41D86E5
:101350001C863D89FC013696E4918E859F853E9FD3
:10136000800D911D11249F878E87EA88FB8808894C
:1013700019894E855F856C857D85AD88CC88CE01C9
:101380000E947723BCCF81E090E0DF91CF911F9145
:101390000F91FF90EF90CF90AF909F908F90089516
:1013A000CF93DF93EC010E9474218C8590E0DF9154
:1013B000CF910895CF93DF93EC010E9474218C8527
:1013C000882331F08D85C80FD11D888990E002C037
:1013D0008FEF9FEFDF91CF910895CF93DF93EC01D3
:1013E0000E9474218C85882359F081508C878D85CB
:1013F00091E0980F9D87C80FD11D888990E002C0A9
:101400008FEF9FEFDF91CF9108950F931F93CF93AD
:10141000DF93EC018B018DA9811109C01EBD0DB4B4
:1014200007FEFDCF0EBD0DB407FEFDCF2FC08130EE
:10143000E9F480E1E9A1FAA1208117FF03C09DA191
:10144000922B02C09EA192239083EBA1FCA120814C
:101450009FA1922B9083EBA1FCA1208198A59223C0
:101460009083000F111F815029F710C0EF8DF8A154
:101470001083CE010E94CD1FEF8DF8A10083CE0115
:10148000DF91CF911F910F910C94CD1FDF91CF91E0
:101490001F910F910895AF92BF92CF92DF92EF927A
:1014A000FF920F931F93CF93DF93EC0177FD38C02A
:1014B00088859985681779079CF557FD31C08A851D
:1014C0009B854817590764F569017A015B01E8813A
:1014D000F9810284F385E02DCE010995E881F98137
:1014E00002A4F3A5E02D01E010E021E030E0A70127
:1014F000B501CE010995B601CE010E94050AE88129
:10150000F9810688F789E02DCE01DF91CF911F91F7
:101510000F91FF90EF90DF90CF90BF90AF90099424
:10152000DF91CF911F910F91FF90EF90DF90CF90BF
:10153000BF90AF900895EF92FF920F931F93CF93B8
:10154000DF93EC0177FD22C08885998568177907BC
:10155000ECF457FD1BC08A859B8548175907B4F4E6
:101560007901E881F98102A4F3A5E02D01E010E002
:1015700021E030E0CE010995B701CE01DF91CF9196
:101580001F910F91FF90EF900C94050ADF91CF917E
:101590001F910F91FF90EF900895FC0185A9811193
:1015A00005C06EBD0DB407FEFDCF08958130E1F496
:1015B00088E0A1A1B2A12C9167FF03C095A1922B55
:1015C00002C096A192239C93A3A1B4A12C9197A1B0
:1015D000922B9C93660FA3A1B4A12C9190A592236A
:1015E0009C93815031F70895A78DB0A16C93CF01E2
:1015F0000C94CD1FCF93DF93EC01ED8DFE8D908188
:101600008CA989238083CE010E94CD0AED8DFE8DA9
:1016100090818BA9892B8083DF91CF9108951F93AF
:10162000CF93DF93EC01162FE881F9810284F385D3
:10163000E02D0995112311F06DAD01C06EADCE0105
:101640000E94FA0AE881F9810688F789E02DCE0127
:10165000DF91CF911F910994FC0185A9811104C0EC
:1016600091A182A19CBD8DBD0895CF93DF93EC0124
:101670000E942C0B8FA987FD06C0EB8DFC8D9081FD
:101680008AA989238083DF91CF9108950895FC0171
:1016900087A987FD06C0A38DB48D9C9181A9892B54
:1016A0008C930895BC01990F880B990B97FD0C94AE
:1016B00046224AE00C940322FC014481558160815A
:1016C000718188ED94E00C94681BCF93DF930E94A6
:1016D0005C0BEC0188ED94E00E945F1F8C0F9D1F56
:1016E000DF91CF910895CF93DF93C8EDD4E023E04D
:1016F0002C8B2D8B20E038EF3B8B2A8B398B288B62
:101700000E94650B81E08C8B8D8B63ED71E0CE01C7
:10171000DF91CF910C94631FCF93DF93EC0185365B
:1017200091059CF48B359105ACF481359105BCF4A1
:101730008D339105CCF489329105DCF44F97F4F4A4
:101740008FE198EFA0E0B0E01DC080E098EFA0E04E
:10175000B0E018C080E09CE8AFEFB0E013C080EECE
:101760009FEFA0E0B0E00EC080EE97E0A0E0B0E018
:1017700009C08FEF9FEFA0E0B0E004C08FE190E0E0
:10178000A0E0B0E09093EB048093EA049093E90426
:101790008093E804862F662311F0962F01C091E014
:1017A0009093EC04611101C081E08093ED04C43694
:1017B000D1057CF463ED71E088ED94E00E944A1F4E
:1017C000CA30D10530F463ED71E088ED94E00E94F9
:1017D0004A1FCE010E94520B82E08093EC0480935A
:1017E000ED0465ED71E088ED94E0DF91CF910C940C
:1017F0004A1FCF92DF92EF92FF920F931F93CF93E6
:10180000DF9300D0CDB7DEB7FC01E85AFF4F20814F
:101810002F3F89F17B018C01C8010E947421F801DE
:101820008485882319F1C8010E94ED098A30F1F0FE
:1018300089831A82F701C480D580FFEFCF1ADF0AAF
:10184000B601C7010E946B1E882331F3F701208186
:10185000318184819581BE016F5F7F4F820F931F1D
:101860000E94BB32F701D582C482D6CFC8010E9444
:10187000C32181E001C080E00F900F90DF91CF91F4
:101880001F910F91FF90EF90DF90CF900895CF922E
:10189000DF92EF92FF920F931F93CF93DF93EC01B0
:1018A000162F6A01E22E0E942C0B8FA987FD06C01D
:1018B000EB8DFC8D90818AA989238083ED8DFE8D2F
:1018C00090818CA989238083612FCE010E94CD0A4B
:1018D000ED8DFE8D90818BA9892B80838601F12C63
:1018E000C8018C199D098E159F053CF4F801619182
:1018F0008F01CE010E94CD0AF3CF8FA987FD06C0CC
:10190000EB8DFC8D908189A9892B80838DA9811114
:101910000AC0DF91CF911F910F91FF90EF90DF9060
:10192000CF900C94460BDF91CF911F910F91FF90B8
:10193000EF90DF90CF900895282F3091DA03313265
:1019400008F04AC08091B6038111FCCF9091D90371
:1019500042E04093B6032093B5032FEF2093B403E6
:101960001092B3033093B203E9EBF3E0A2E9B3E0E2
:1019700020E0321721F041914D932F5FFACF109262
:10198000910320919103990F922B90939103909141
:101990009003913061F41092900390919103909391
:1019A000BB009091BC0093FDF8CF95EC01C095EE83
:1019B0009093BC009091B6039230E1F39091B40300
:1019C0009F3F79F08091B403803241F08091B4035D
:1019D000803331F084E005C081E003C082E001C0C3
:1019E00083E01092B8031092DA031092B7030895BF
:1019F00091E09093B70398E39093D9031092B803C2
:101A00001092DA03682F85E194E00E94482381E078
:101A10000E949C0C8091B6038111FCCF81E08093E1
:101A2000B6038093B5039FEF9093B4031092B30372
:101A30001092B20380939103809191038067809309
:101A4000910380919003813061F410929003809112
:101A500091038093BB008091BC0083FDF8CF85EC9F
:101A600001C085EE8093BC008091B6038130E1F324
:101A70008091B303811103C09091B30301C091E041
:101A8000E2E9F3E0A0E7B3E080E0891721F02191DB
:101A90002D938F5FFACF10926F0380936E0385E1D1
:101AA00094E00E94FF2208958091450581110BC0AA
:101AB0008091480590914905009711F00E94563198
:101AC00081E08093450580914305909144050097FE
:101AD00031F00E945631109244051092430508954A
:101AE0008F929F92AF92BF92CF92DF92EF92FF922E
:101AF0000F931F93CF93DF93EC014901BE2CAF2CC2
:101B0000E881F98102A4F3A5E02D09959401D8019B
:101B10000E940C30611571058105910509F481C0A1
:101B20002DA921110FC0615071098109910908F493
:101B300078C0AEBC0DB407FEFDCFBEBC0DB407FE31
:101B4000FDCFF1CF213009F03FC06150710981090B
:101B5000910908F466C03A2D28E0E9A1FAA1508164
:101B600037FF03C04DA1452B02C04EA14523408342
:101B7000EBA1FCA150814FA1452B4083EBA1FCA11F
:101B8000508148A545234083330F215031F73B2D29
:101B900028E0E9A1FAA1508137FF03C04DA1452BF0
:101BA00002C04EA145234083EBA1FCA150814FA16F
:101BB000452B4083EBA1FCA1508148A545234083E0
:101BC000330F215031F7C1CFFE1017C0EF8DF8A1B0
:101BD000F0826B017C01CC0CDD1CEE1CFF1CC114DF
:101BE000D104E104F104E9F0CE010E94CD1F81E0AF
:101BF000C81AD108E108F108F2CF6B017C01EF8D22
:101C0000F8A1A082CE010E94CD1FEF8DF8A1B08275
:101C1000CE010E94CD1F21E0C21AD108E108F108CF
:101C200071F7DF91CF911F910F91FF90EF90DF90AF
:101C3000CF90BF90AF909F908F900895AF92BF923A
:101C4000CF92DF92EF92FF920F931F93CF93DF9388
:101C500000D0CDB7DEB7FC01268521111AC05C018A
:101C6000178680E7898380E28A83E088F18880E2B2
:101C7000C82ED12C00E010E020E030E042E050E03F
:101C8000BE016F5F7F4F848595850E94DB1FF50144
:101C900086870F900F90DF91CF911F910F91FF904A
:101CA000EF90DF90CF90BF90AF900895CF93DF93E8
:101CB000EC018FE291E099838883CE010E94C321D9
:101CC000CE018E5A9F4FDF91CF910C94F21EAF92AE
:101CD000BF92CF92DF92EF92FF920F931F93CF9319
:101CE000DF9300D000D000D0CDB7DEB76C01DC01AF
:101CF0001496ED90FC90159783E08093EC0480930C
:101D0000ED04BEE0EB16F10424F4C6010E94650B5D
:101D100097C0EBE1EE16F1042CF081E08093EC0427
:101D20008093ED04E114F10419F40FEF1FEF1BC0D1
:101D3000D601ED91FC911197EE0DFF1DB080108240
:101D40000D911C9160E270E0C8010E94C232F8015E
:101D5000EE0DFF1DB082009741F3F6012081318125
:101D60008C01021B130B6CE673E0CE0101960E94FE
:101D7000111FD60114968D919C9115970097D1F063
:101D800078018017910708F47C01D601ED91FC9150
:101D90001197EE0DFF1DB08010826D917C91CE01E8
:101DA00001960E94DB1EF60180819181FC01EE0DFF
:101DB000FF1DB082CE0101960E94650BCE010196F7
:101DC0000E94F21ED6011496ED90FC9015970F5FBD
:101DD0001F4FE016F10628F4902F812F8701E92E7E
:101DE000F82E6CE673E0CE0101960E94111FF601F9
:101DF000A480B5800A151B05D8F4EA14FB0408F486
:101E00005701D601ED91FC911197EA0DFB1DF08071
:101E100010826D917C91600F711FCE0101960E941E
:101E2000DB1EF60180819181FC01EA0DFB1DF08231
:101E3000CE0101960E94650BCE0101960E94F21E12
:101E400026960FB6F894DEBF0FBECDBFDF91CF91BF
:101E50001F910F91FF90EF90DF90CF90BF90AF90C8
:101E600008956F927F928F929F92AF92BF92CF927E
:101E7000DF92EF92FF920F931F93CF93DF93CDB733
:101E8000DEB727970FB6F894DEBF0FBECDBF5C015B
:101E90008B01FC011382128288EE93E0A0E0B0E097
:101EA00084839583A683B7838FE291E091838083B7
:101EB0003501F0E56F0E711C80EC94E0F301918325
:101EC00080837501F2E5EF0EF11C6CE673E0C7014B
:101ED0000E94111F450188E5880E911CF4011082B3
:101EE000B801C7010E94DB1E809117019091180173
:101EF000A091190189839A83AB8386E48E83F401D0
:101F00008081FE01E80FF11D81818F8381E090E0E7
:101F1000F50197878687EA5AFF4F00811181F70103
:101F20002081318182E0C82ED12CCE0104967C0123
:101F300042E050E0BE016A5F7F4FF30180819181F2
:101F40000E94DB1F8C81882321F08FEFF4018083B6
:101F500007C0F501E75AFF4F8D818083F501148694
:101F600027960FB6F894DEBF0FBECDBFDF91CF919D
:101F70001F910F91FF90EF90DF90CF90BF90AF90A7
:101F80009F908F907F906F900895CF93DF931F92D3
:101F9000CDB7DEB76983DC01ED91FC910280F3815E
:101FA000E02D41E050E0BE016F5F7F4F09950F903B
:101FB000DF91CF910895089580E090E00895AF9269
:101FC000BF92CF92DF92EF92FF920F931F93CF9326
:101FD000DF9300D01F92CDB7DEB7FC01E85AFF4F68
:101FE00020812F3F11F15A019B0147E64983319629
:101FF00040814A833997CC24C394D12CCE010396D7
:102000007C01850142E050E0BE016F5F7F4F80811F
:1020100091810E94DB1F8B81882329F090E09195AC
:102020008195910904C0C50102C08FEF9FEF0F9009
:102030000F900F90DF91CF911F910F91FF90EF9034
:10204000DF90CF90BF90AF9008958F929F92AF9204
:10205000BF92CF92DF92EF92FF920F931F93CF9395
:10206000DF931F92CDB7DEB75C019B014A01DC0113
:1020700052968C91811105C08B017B01E40EF51EF7
:1020800031C080E58983C12CD12CE12CF12C8A014F
:1020900041E050E0BE016F5F7F4FF501848595857B
:1020A0000E94DB1F22C0D5015596ED91FC915697F9
:1020B00053968C91539791E0980F53969C93D80127
:1020C0009D918D01E80FF11D9083F501938984891D
:1020D000981308C00190F081E02D0680F781E02D73
:1020E000C5010995E016F106F1F6C4010F90DF91E4
:1020F000CF911F910F91FF90EF90DF90CF90BF9005
:10210000AF909F908F900895CF92DF92EF92FF92C1
:102110000F931F93C12CD12CE12CF12C00E010E087
:1021200020E030E00E94DB1F1F910F91FF90EF90A5
:10213000DF90CF900895CF93DF93FC012289211186
:102140000BC0EC01438950E06589768984859585CB
:102150000E94841081E08B8BDF91CF910895CF9303
:10216000DF9300D0CDB7DEB7DC0152968C91529749
:10217000882379F080E589836A8342E050E0BE01DC
:102180006F5F7F4F1C968D919C911D970E948410CC
:102190001FC05596ED91FC91569753968C9153978D
:1021A00091E0980F53969C935397E80FF11D60832D
:1021B00053969C91539754968C915497981308C0BA
:1021C000ED91FC9111970680F781E02DCD010995E5
:1021D00081E090E00F900F90DF91CF910895CF9321
:1021E000DF93EC010E941E0E8E85882341F08F85BF
:1021F000E889F989E80FF11D808190E002C08FEF36
:102200009FEFDF91CF910895CF93DF93EC010E9470
:102210001E0E8E85882369F081508E87E889F989A2
:102220008F8591E0980F9F87E80FF11D808190E0E6
:1022300002C08FEF9FEFDF91CF910895CF93DF938F
:10224000EC010E941E0E8E8590E0DF91CF910895E3
:10225000CF93DF93EC018D819E81DC01ED91FC91A8
:102260000084F185E02D09951816190654F48D8126
:102270009E81DC01ED91FC910284F385E02D0995AE
:10228000EACFDF91CF9108958F929F92AF92BF9244
:10229000CF92DF92EF92FF920F931F93CF93DF9332
:1022A000CDB7DEB72E970FB6F894DEBF0FBECDBF09
:1022B0005C01C5010E94281168EE73E080E090E0A7
:1022C0000E94371AD50115968D919C911697DC01C5
:1022D000ED91FC910084F185E02D09951816190601
:1022E00044F39924939492E3892E85E0EAE1F1E0A6
:1022F000DE01119601900D928A95E1F7F501908625
:1023000045E050E0BE016F5F7F4FC5010E94841021
:10231000D50115968D919C911697DC01ED91FC915C
:102320000190F081E02D63E009956AEF70E080E0B4
:1023300090E00E94371A63E171E0F5018581968192
:102340000E94261F6AEF70E080E090E00E94371A3A
:1023500061E171E0D50115968D919C9116970E94CF
:10236000261F64EF71E080E090E00E94371A65E07C
:1023700071E0F501858196810E94261F64EF71E06E
:1023800080E090E00E94371AC5010E94281185E084
:10239000EFE1F1E0DE01169601900D928A95E1F7EA
:1023A000D50118968C9284E0C82ED12CFE013B9664
:1023B0007F0100E010E020E030E045E050E0BE01A9
:1023C0006A5F7F4FC5010E94DB1F8F3FFFEF9F07B2
:1023D00039F468EE73E080E090E00E94371A85CF10
:1023E0002B852111FFCF049711F52C8530E0205368
:1023F000310984E6829FA001839F500D11242D8511
:1024000030E0205331096AE0629FC001639F900D64
:102410001124840F951F2E8530E020533109820F3F
:10242000931FD50112969C938E93119705C084E655
:1024300090E0F5019283818382E3D50118968C9315
:102440002E960FB6F894DEBF0FBECDBFDF91CF91B1
:102450001F910F91FF90EF90DF90CF90BF90AF90C2
:102460009F908F9008958F929F92AF92BF92CF923C
:10247000DF92EF92FF92CF93DF93EC018FB7F89446
:102480008090050490900604A0900704B090080482
:102490008FBF6B01E12CF12C8D819E81DC01ED91D0
:1024A000FC910284F385E02D099597FF16C02FB7A4
:1024B000F8948091050490910604A0910704B091CE
:1024C00008042FBF88199909AA09BB098C159D0515
:1024D000AE05BF0508F38FEF9FEFDF91CF91FF901F
:1024E000EF90DF90CF90BF90AF909F908F90089526
:1024F000FC01238134812627022E2295207F20256E
:10250000032E322F22952F7002262695322723275D
:10251000220F220F220F20253483238308951F9337
:10252000CF93DF93CDB7DEB7C451D1400FB6F89447
:10253000DEBF0FBECDBF6CE673E0CE01815F9E4F64
:102540000E94111F67ED71E0CE01855A9F4F0E94D6
:10255000310FBE01655A7F4FCE0101960E9467225E
:10256000BE01615F7E4FCE0101960E94F90B182FCC
:10257000CE0101960E94560E1123F9F0C15FDE4F85
:1025800088819981CF50D140009719F00E94AD2CDD
:1025900003C060E070E0CB0120E030E040E05FE3AA
:1025A0000E941C300E9488307093040460930304DE
:1025B000CE01855A9F4F0E94C3216CE673E0CE0185
:1025C000815F9E4F0E94DB1E6FEE71E0CE018B5447
:1025D0009F4F0E94310FBE016B547F4FCE01019679
:1025E0000E946722BE01615F7E4FCE0101960E946C
:1025F000F90B182FCE0101960E94560E1123F9F007
:10260000C15FDE4F88819981CF50D140009719F08A
:102610000E94AD2C03C060E070E0CB0120E030E010
:1026200040E05FE30E941C300E94883070930004F9
:102630006093FF03CE018B549F4F0E94C321CE01B4
:102640008B549F4F0E94560ECE01855A9F4F0E9479
:10265000560ECE01815F9E4F0E94F21ECC5EDE4F71
:102660000FB6F894DEBF0FBECDBFDF91CF911F91A3
:1026700008951F93CF93DF93CDB7DEB7C85CD140E9
:102680000FB6F894DEBF0FBECDBF6CE673E0CE018F
:102690008D539E4F0E94111F6BE072E0CE01855A50
:1026A0009F4F0E94310FBE01655A7F4FCE010196A8
:1026B0000E946722BE016D537E4FCE0101960E949B
:1026C000F90B182FCE0101960E94560E112329F006
:1026D000CE01855A9F4F0E94C321CE018D539E4F3C
:1026E0000E94601E7093F2036093F1036CE673E046
:1026F000CE018D539E4F0E94DB1E65E272E0CE013B
:102700008B549F4F0E94310FBE016B547F4FCE01FF
:1027100001960E946722BE016D537E4FCE01019645
:102720000E94F90B182FCE0101960E94560E11231C
:1027300029F0CE018B549F4F0E94C321CE018D53AF
:102740009E4F0E94601E7093F4036093F3036CE647
:1027500073E08DE295E00E94DB1E60E472E0CE0142
:10276000815F9E4F0E94310FBE01615F7E4FCE019F
:1027700001960E9467226DE275E0CE0101960E94EB
:10278000F90B182FCE0101960E94560E112329F045
:10279000CE01815F9E4F0E94C3216CE673E087E209
:1027A00095E00E94DB1E61E672E0CE0187599E4FE4
:1027B0000E94310FBE0167597E4FCE0101960E94E3
:1027C000672267E275E0CE0101960E94F90B182F8F
:1027D000CE0101960E94560E112329F0CE01875991
:1027E0009E4F0E94C321CE0187599E4F0E94560ED4
:1027F000CE01815F9E4F0E94560ECE018B549F4F9B
:102800000E94560ECE01855A9F4F0E94560ECE0151
:102810008D539E4F0E94F21EC853DE4F0FB6F894A0
:10282000DEBF0FBECDBFDF91CF911F910895CF9234
:10283000DF92EF92FF920F931F93CF93DF93CDB769
:10284000DEB7C85CD1400FB6F894DEBF0FBECDBF77
:102850006CE673E0CE018D539E4F0E94111F6BE713
:1028600072E0CE01855A9F4F0E94310FBE01655A1A
:102870007F4FCE0101960E946722BE016D537E4FAD
:10288000CE0101960E94F90B182FCE0101960E94ED
:10289000560E112329F0CE01855A9F4F0E94C32165
:1028A000CE018D539E4F0E94601E7093E60360938D
:1028B000E5036CE673E0CE018D539E4F0E94DB1E54
:1028C00062E972E0CE018B549F4F0E94310FBE012E
:1028D0006B547F4FCE0101960E946722BE016D535B
:1028E0007E4FCE0101960E94F90B182FCE01019662
:1028F0000E94560E112329F0CE018B549F4F0E9447
:10290000C3216AEA72E0CE0101960E94111FC953E9
:10291000DE4F88819981C75CD1402D813E8182172D
:10292000930701F5892B01F1CD53DE4FE880F98043
:10293000C35CD14009811A81F70181917F0188230D
:1029400099F0082E000C990B0E94AA326C01F80134
:1029500081918F01082E000C990B0E94AA32C81693
:10296000D90651F310E001C011E0CE0101960E949A
:10297000F21E111109C0CE018D539E4F0E94601EA0
:102980007093E8036093E7036CE673E08BE195E0F6
:102990000E94DB1E6FEA72E0CE01815F9E4F0E94B3
:1029A000310FBE01615F7E4FCE0101960E9467220A
:1029B0006BE175E0CE0101960E94F90B182FCE0154
:1029C00001960E94560E112329F0CE01815F9E4F81
:1029D0000E94C3216CE673E081E295E00E94DB1E59
:1029E00066EC72E0CE0187599E4F0E94310FBE0106
:1029F00067597E4FCE0101960E94672261E275E021
:102A0000CE0101960E94F90B182FCE0101960E946B
:102A1000560E112329F0CE0187599E4F0E94C321E3
:102A2000CE0187599E4F0E94560ECE01815F9E4F68
:102A30000E94560ECE018B549F4F0E94560ECE011F
:102A4000855A9F4F0E94560ECE018D539E4F0E9475
:102A5000F21EC853DE4F0FB6F894DEBF0FBECDBFD7
:102A6000DF91CF911F910F91FF90EF90DF90CF906A
:102A700008951F93CF93DF93CDB7DEB7C451D140F4
:102A80000FB6F894DEBF0FBECDBF6CE673E0CE018B
:102A9000815F9E4F0E94111F64EE72E0CE01855A45
:102AA0009F4F0E94310FBE01655A7F4FCE010196A4
:102AB0000E946722BE01615F7E4FCE0101960E9497
:102AC000F90B182FCE0101960E94560E1123F9F032
:102AD000C15FDE4F88819981CF50D140009719F0B6
:102AE0000E94AD2C03C060E070E0CB0120E030E03C
:102AF00040E05FE30E941C300E9488307093E40342
:102B00006093E303CE01855A9F4F0E94C3216CE678
:102B100073E0CE01815F9E4F0E94DB1E6CEF72E07E
:102B2000CE018B549F4F0E94310FBE016B547F4FDB
:102B3000CE0101960E946722BE01615F7E4FCE01E9
:102B400001960E94F90B182FCE0101960E94560E95
:102B5000112329F0CE018B549F4F0E94C321CE0137
:102B6000815F9E4F0E94601E7093F0036093EF039D
:102B7000CE018B549F4F0E94560ECE01855A9F4F17
:102B80000E94560ECE01815F9E4F0E94F21ECC5EC7
:102B9000DE4F0FB6F894DEBF0FBECDBFDF91CF91F1
:102BA0001F910895CF93DF931F92CDB7DEB769834E
:102BB000DC01ED91FC910280F381E02D41E050E0D9
:102BC000BE016F5F7F4F09950F90DF91CF91089500
:102BD00083E08093E9008091F200882319F08AE372
:102BE0008093E8000895FC018485958597FD0BC0CE
:102BF0009FB7F89482E08093E9008091F2009FBF34
:102C000090E0019608959FB7F89482E08093E900E0
:102C10008091F2009FBF90E008954091DF035091B2
:102C2000E0032091DD033091DE0342175307B4F433
:102C30009091E8009570E1F39091E80092FD19C041
:102C40008093F1008091DF039091E00301968F73F0
:102C50009927892B19F48EEF8093E8008091DF0388
:102C60009091E00301969093E0038093DF0381E06D
:102C7000089580E00895DF92EF92FF920F931F93E3
:102C8000CF93DF93D82E8A017B01E40EF51EEB0172
:102C9000CE15DF0571F0D7FE03C0FE01849101C09F
:102CA00088810E940D1621968111F2CF8FEF9FEF40
:102CB00001C0C801DF91CF911F910F91FF90EF905C
:102CC000DF900895615030F02091F100FC012083E5
:102CD0000196F8CF289884E680939F0508950E9476
:102CE000D92590E008950F931F93CF93DF931F9200
:102CF000CDB7DEB78C01FC018485958597FF0EC0AA
:102D0000CE0101960E94AB25019719F4898190E0CC
:102D100002C08FEF9FEFF80195878487F8018485C3
:102D200095850F90DF91CF911F910F910895CF93CB
:102D3000DF931F92CDB7DEB7FC018485958597FDA3
:102D400005C02FEF3FEF358724870BC0CE010196DA
:102D50000E94AB25019719F4898190E002C08FEFA2
:102D60009FEF0F90DF91CF9108950F931F93CF9313
:102D7000DF931F92CDB7DEB782E0898342E450E053
:102D800062E471E080E80E943B160E941827DC0193
:102D900012960D911C9113970115110589F0D80118
:102DA000ED91FC910280F381E02DBE016F5F7F4FBA
:102DB000C801099597FD04C0F80100851185ECCF85
:102DC00089810F90DF91CF911F910F9108951F92EC
:102DD0000F920FB60F9211248F939F938091E10071
:102DE0009091E100937F9093E10083FF0FC01092D8
:102DF000E90091E09093EB001092EC0092E3909345
:102E0000ED001092A00598E09093F00082FF20C0A2
:102E100093E09093E9009091F200992319F09AE3DE
:102E20009093E8009091E203992339F09091E203A6
:102E300091509093E203992389F190919F059923F2
:102E400039F090919F05915090939F05992341F1FE
:102E500084FF10C08091E2008E7E81608093E2004A
:102E60008091E1008F7E8093E1008091DC038E7E73
:102E7000806111C080FF16C08091E2008E7E80616B
:102E80008093E2008091E1008E7E8093E10080914A
:102E9000DC038E7E81608093DC0304C05D9ACDCF1D
:102EA000289AD6CF9F918F910F900FBE0F901F90B1
:102EB00018951F920F920FB60F921124CF92DF92A6
:102EC000EF92FF920F931F932F933F934F935F9334
:102ED0006F937F938F939F93AF93BF93EF93FF93E2
:102EE000CF93DF93CDB7DEB76C97DEBFCDBF109227
:102EF000E9008091E80083FFFBC168E0CE014596C0
:102F00000E94621682EF8093E8008D8987FF05C0DA
:102F10009091E80090FFFCCF03C09EEF9093E800F3
:102F2000982F907609F0C6C09E894F89588D2F89B9
:102F3000F88C91110CC0803829F48091DB038093C8
:102F4000F10002C01092F1001092F10045C19130E1
:102F500051F4811141C14130510509F03DC18091C9
:102F6000DB038D7F0BC0933061F4811135C141309B
:102F7000510509F031C18091DB0382608093DB034E
:102F80002BC1953049F48091E80080FFFCCF822F5F
:102F900080688093E30020C1963009F05EC00B8DFD
:102FA0001C8D22E01092E9001092E0031092DF03E2
:102FB000F21232C01092DE031092DD030E94B516A9
:102FC00099E0BE016F5F7F4FDB01E92F1D92EA950B
:102FD000E9F79983FA8291E09E8390EA98879AEFC5
:102FE00099872091DF033091E003275F3F4F3C83B7
:102FF0002B838D831092E9001092E0031092DF037F
:103000001093DE030093DD0349E050E080E00E946E
:103010003B160E94B516E0C01093DE030093DD035B
:103020000E941827DC0112960D911C91139701152F
:10303000110509F4BBC0D801ED91FC910480F58124
:10304000E02DBE016B5E7F4FC8010995009709F026
:10305000C7C0F80100851185EACF973009F445C152
:10306000983021F481E08093F100B6C0993009F0E6
:10307000B3C0837009F039C1E5E2F1E081E031E0ED
:1030800096E32081211109C08EE78093EA00109217
:10309000EA008F898093A0059FC08093E900309358
:1030A000EB0021912093EC009093ED008F5F87302F
:1030B00041F7EACF8B8D9C8D1092E9001092E003CE
:1030C0001092DF039093DE038093DD03898D8111DD
:1030D00053C08E899D89913A49F4813209F005C126
:1030E00047E050E064E071E080E0BBC0913209F05D
:1030F000FCC0833269F48F89988DA0E0B0E08093A2
:10310000000190930101A0930201B093030164C0F8
:10311000803269F48091E80082FFFCCF67E084E0B0
:1031200091E00E9462168BEF8093E80055C08232D6
:1031300009F052C08F8980930B01EEEFFFE7859174
:1031400094918B3F9C4D19F0E0E0F8E002C0EEEF67
:10315000FAE08091040190910501A0910601B091DF
:103160000701803B9440A105B10509F09EC0809104
:103170000B0180FF79C099C00E941827FC010281D1
:1031800013810115110509F4B0C0D801ED91FC912E
:103190000190F081E02DBE016B5E7F4FC801099563
:1031A00081111AC0F80100851185EBCFF1E0FF16FF
:1031B00009F44EC0F3E0FF1298C08F89882309F408
:1031C0004AC0823089F440E86BE086EA91E00E94D0
:1031D0002C27882309F489C08EEF8093E80088C0EB
:1031E00018161906CCF381C0813029F440E86BE051
:1031F0008AE991E0ECCF833009F077C00E9418276C
:10320000DC011296ED90FC9013978E010F5F1F4F1B
:103210006801E114F10479F0D701ED91FC91068089
:10322000F781E02DB801C7010995080F111DF701BD
:10323000E084F184EECFD8011C92F60101900020C9
:10324000E9F73197BF016C197D0940E0C601BFCF96
:1032500068E871E002C064E871E0FB01449150E06D
:1032600080E80E943B16B8CFEE3F2AE0F20751F00B
:10327000808191818737A7E79A0721F09093FF0A11
:103280008093FE0A87E797E79183808380916000AF
:103290008093E1039BE088E10FB6F894A8958093B2
:1032A00060000FBE9093600097CF80819181873737
:1032B000974709F091CFA89580916000886180932D
:1032C00060008091E10380936000EE3FBAE0FB076D
:1032D00039F08091FE0A9091FF0A918380837CCF20
:1032E0001092FF0A1092FE0A77CF81E28093EB00E2
:1032F0006C960FB6F894DEBF0FBECDBFDF91CF91B5
:10330000FF91EF91BF91AF919F918F917F916F91BD
:103310005F914F913F912F911F910F91FF90EF90EF
:10332000DF90CF900F900FBE0F901F901895362F03
:1033300090E0FC01ED5DFE4F4491FC01E25AFD4F2F
:103340002491FC01E557FD4F8491882309F452C074
:103350004423E1F150E0FA013197EF30F105B0F587
:10336000EA5AFF4F0C940630909180009F7707C077
:10337000909180009F7D03C090918000977F9093F3
:10338000800024C094B59F7702C094B59F7D94BD02
:103390001DC0909190009F7707C0909190009F7DF5
:1033A00003C090919000977F909390000FC09091F0
:1033B000C0009F7703C09091C0009F7D9093C00094
:1033C00005C09091C200977F9093C200E82FF0E073
:1033D000EE0FFF1FE358FD4FA591B4919FB7F894EE
:1033E000311104C08C912095282302C0EC912E2B22
:1033F0002C939FBF0895CF93DF9390E0FC01E25A96
:10340000FD4F2491FC01E557FD4F8491882361F124
:1034100090E0880F991FFC01EB5EFE4FC591D4919F
:10342000FC01E358FD4FA591B491611109C09FB70C
:10343000F8948881209582238883EC912E230BC0F9
:10344000623061F49FB7F8948881322F30958323DE
:103450008883EC912E2B2C939FBF06C08FB7F894D6
:10346000E8812E2B28838FBFDF91CF9108958F9213
:103470009F92AF92BF92CF92DF92EF92FF926B0139
:103480007C010E94F91A4B015C01C114D104E104D2
:10349000F104F1F00E94F91ADC01CB0188199909B5
:1034A000AA09BB09883E9340A105B10570F321E04C
:1034B000C21AD108E108F10888EE880E83E0981E50
:1034C000A11CB11CC114D104E104F10419F7DDCF32
:1034D000FF90EF90DF90CF90BF90AF909F908F9034
:1034E00008958F929F92AF92BF92CF92DF92EF9208
:1034F000FF920F931F93CF93DF936C017B018A019F
:1035000080910B01882309F45CC08091A005882379
:1035100009F457C08091DC0380FF05C08091E00072
:1035200082608093E000E801B12C8AEFA82E93E03E
:10353000892E2AE3922E209711F4BB20D9F10E9404
:10354000D92581110AC0AA94AA20D9F161E070E0BE
:1035500080E090E00E94371AEECF282F30E0C217AB
:10356000D3070CF48C2F9FB7F8948092E900209138
:10357000E80025FF1DC0282F30E0C21BD30BF70148
:10358000815020F041914093F100FACFE20EF31EFA
:10359000BB2019F09092E8000AC08091E80085FDF8
:1035A00007C09092E800BB24B394209709F0B12C97
:1035B0009FBFC1CF5D9884E68093E2031016110689
:1035C00044F081E090E0F6019383828380E090E014
:1035D00001C0C801DF91CF911F910F91FF90EF9033
:1035E000DF90CF90BF90AF909F908F9008950E94F2
:1035F000A5323FB7F8948091100490911104A091E6
:103600001204B091130426B5A89B05C02F3F19F0F2
:103610000196A11DB11D3FBFBA2FA92F982F882752
:10362000820F911DA11DB11DBC01CD0142E0660FAD
:10363000771F881F991F4A95D1F708951F920F92FF
:103640000FB60F9211242F933F938F939F93AF93B5
:10365000BF938091050490910604A0910704B09156
:10366000080430910F0423E0230F2D3720F4019636
:10367000A11DB11D05C026E8230F0296A11DB11D95
:1036800020930F048093050490930604A0930704ED
:10369000B09308048091100490911104A091120439
:1036A000B09113040196A11DB11D80931004909355
:1036B0001104A0931204B0931304BF91AF919F9192
:1036C0008F913F912F910F900FBE0F901F901895E3
:1036D000CF92DF92EF92FF920F931F93CF93DF93DE
:1036E0006C017A018B01C0E0D0E0CE15DF0581F0DE
:1036F000D8016D918D01D601ED91FC910190F08181
:10370000E02DC6010995892B11F02196EECF7E019F
:10371000C701DF91CF911F910F91FF90EF90DF9044
:10372000CF900895FC01538D448D252F30E0842FD8
:1037300090E0821B930B541710F0CF9608950197D9
:103740000895FC01918D828D981761F0828DDF01C3
:10375000A80FB11D5D968C91928D9F5F9F73928F84
:1037600090E008958FEF9FEF0895FC01918D828D79
:10377000981731F0828DE80FF11D858D90E0089546
:103780008FEF9FEF0895FC01918D228D892F90E09E
:10379000805C9F4F821B91098F739927089583E264
:1037A00094E00E94C31B21E0892B09F420E0822FC2
:1037B0000895FC01848DDF01A80FB11DA35ABF4FEE
:1037C0002C91848D90E001968F739927848FA68920
:1037D000B7892C93A089B1898C9182748C93938D35
:1037E000848D981306C00288F389E02D80818F7D37
:1037F00080830895EF92FF920F931F93CF93DF93EF
:10380000EC0181E0888F9B8D8C8D981305C0E88931
:10381000F989808185FD26C0F62E0B8D10E00F5FA3
:103820001F4F0F731127E02E8C8DE8120CC00FB6BE
:1038300007FCFACFE889F989808185FFF5CFCE01B1
:103840000E94D91BF1CF8B8DFE01E80FF11DE35AC9
:10385000FF4FF0829FB7F8940B8FEA89FB89808134
:10386000806209C09FB7F894EE89FF896083E88978
:10387000F9898081827480839FBF81E090E0DF912D
:10388000CF911F910F91FF90EF900895CF93DF9309
:10389000EC01888D8823C9F0EA89FB89808185FD48
:1038A00005C0A889B9898C9186FD0FC00FB607FCA9
:1038B000F5CF808185FFF2CFA889B9898C9185FFEA
:1038C000EDCFCE010E94D91BE7CFDF91CF910895B4
:1038D00080E090E0892B29F00E94CF1B81110C948D
:1038E00000000895CF93DF93EC01888199810097C0
:1038F00011F00E945631198218821D821C821B828F
:103900001A82DF91CF910895AF92BF92CF92DF924A
:10391000EF92FF920F931F93CF93DF93EC015B0124
:103920006A01215031097901E60EF71E0150110993
:10393000040F151F6AE20E94FA0AB501CE010E9427
:10394000050AB701CE010E94050A6BE2CE010E9472
:10395000FA0AB601CE010E94050AB801CE010E9402
:10396000050A6CE2CE01DF91CF911F910F91FF907C
:10397000EF90DF90CF90BF90AF900C94FA0A611156
:1039800002C060E201C061E220E040E050E00C943F
:10399000470CCF93DF931F92CDB7DEB7FC01637066
:1039A000668B623041F0633079F0613011F088E469
:1039B00003C088E20AC088E8898380EF90E091879D
:1039C000808780E491E008C088EE898380E491E0FC
:1039D0009187808780EF90E09387828721E0AE0116
:1039E0004F5F5F4F66E3CF010E94470C0F90DF915E
:1039F000CF910895BF92CF92DF92EF92FF920F93F3
:103A00001F93CF93DF93EC016A017B01452B462B7B
:103A1000472B31F4C12C42E1D42E4AE7E42EF12C9D
:103A20008FA987FD07C061E00E94FB1961E08FA9A3
:103A30000E94971961E088AD0E94FB1961E088AD92
:103A40000E9497198DA9811152C040E052E16AE7A6
:103A500070E090E0C416D506E606F70640F47695C9
:103A60006795579547959F5F9630A1F797E081E05E
:103A70008927982F906A969599A381708AA31BA293
:103A80001CA21DA21EA21FB7F894809114048111DC
:103A900027C0ECE9F2E08491EFE6F2E09491E82FA0
:103AA000F0E0EE0FFF1FEB5EFE4FA591B491EC919D
:103AB000E92321F461E081E10E94971961E081E14D
:103AC0000E94FB198CB580618CBD8CB580648CBD67
:103AD00061E08FE00E94FB1961E080E10E94FB1928
:103AE000809114048F5F809314041FBF4BC08130FA
:103AF000B9F461E08AA50E94FB1960E08AA50E94E2
:103B0000971961E08CA50E94FB1960E08CA50E94CA
:103B100097198BA587FD36C060E00E94FB1932C063
:103B20000BE812E0F12CF8018491E82FF0E0EE0FA1
:103B3000FF1FE358FD4F859194912F8D38A12817D1
:103B4000390741F461E08F2D0E94FB1960E08F2D51
:103B50000E949719F3940F5F1F4FFFE1FF12E3CF0D
:103B600061E08EA50E94FB1961E08EA50E94971965
:103B70008FA587FD07C061E00E94FB1961E08FA55A
:103B80000E9497198EA987FD21C061E00E94FB1950
:103B900061E08EA90E94971964E670E080E090E0F1
:103BA0000E94371A60E08EA90E94971964E670E0BF
:103BB00080E090E00E94371A61E08EA90E94971978
:103BC00068EC70E080E090E00E94371A8EA987FFD1
:103BD0000DC020E040E050E061E0CE010E94470CC3
:103BE00066E970E080E090E00E94371A8FEEE82EE0
:103BF00081E0F82EC7010196F7011491112309F411
:103C00004DC0FC01B4900B2D0F77CE010E942C0B00
:103C10008FA987FD06C0EB8DFC8D90818AA9892331
:103C20008083ED8DFE8D90818CA989238083612F07
:103C3000CE010E94CD0AED8DFE8D90818BA9892B3E
:103C40008083C12CD12C10E0C016D10664F4F6019B
:103C50003296EE0DFF1D6491CE010E94CD0AFFEF5A
:103C6000CF1ADF0AF1CF8FA987FD06C0EB8DFC8D3F
:103C7000908189A9892B80838DA9811102C00E941E
:103C8000460B0E5F1F4FE00EF11EB7FEB3CF66E985
:103C900070E080E090E00E94371AACCF80EF90E0B7
:103CA0009987888780E491E09B878A87DF91CF910D
:103CB0001F910F91FF90EF90DF90CF90BF900895EC
:103CC000FC0180819181009711F00C94B12C60E08F
:103CD00070E0CB0108950F931F93CF93DF93EC0116
:103CE00088819981009729F02A813B81261737071F
:103CF00088F48B016F5F7F4F0E94DF31009761F086
:103D0000998388831B830A832C813D81232B11F4A3
:103D1000FC01108281E001C080E0DF91CF911F9112
:103D20000F910895EF92FF920F931F93CF93DF931C
:103D3000EC018B016115710551F0CB010E94DF2C64
:103D40007C01BC01CE010E946B1E811104C0CE011A
:103D50000E94721C07C0FD82EC82B80188819981A3
:103D60000E94D82CCE01DF91CF911F910F91FF902F
:103D7000EF900895EF92FF920F931F93CF93DF93ED
:103D8000EC017B018A01BA010E946B1E811104C003
:103D9000CE010E94721C07C01D830C83B70188816D
:103DA00099810E94BB32CE01DF91CF911F910F917B
:103DB000FF90EF900895CF93DF93EC0161157105AB
:103DC00059F0FB0101900020E9F73197AF01461B44
:103DD000570B0E94BA1E02C00E94721CCE01DF91D6
:103DE000CF910895FC01808191810C945631FB01A3
:103DF000DC0111961C921E9213961C921E92129731
:103E000015961C921E9214978617970749F06081A9
:103E100071816115710521F0448155810C94BA1EA0
:103E20000895FC011182108213821282158214827D
:103E30006115710551F0FB0101900020E9F7319700
:103E4000AF01461B570B0C94BA1E0895EF92FF92D8
:103E50000F931F93CF93DF938C017B01C0E0D0E0E1
:103E6000F701EC0FFD1F6491662361F0D801ED911D
:103E7000FC910190F081E02DC8010995892B11F08A
:103E80002196EECFCE01DF91CF911F910F91FF9040
:103E9000EF9008956115710579F0FB010190002004
:103EA000E9F73197AF01461B570BDC01ED91FC910F
:103EB0000280F381E02D099480E090E008956AE6A5
:103EC00073E00C944A1F0F931F93CF93DF93EC0181
:103ED0000E944A1F8C01CE010E945F1F800F911F1C
:103EE000DF91CF911F910F9108951F920F920FB6FE
:103EF0000F9211242F933F934F935F936F937F9370
:103F00008F939F93AF93BF93EF93FF9383E294E0DC
:103F10000E94D91BFF91EF91BF91AF919F918F911B
:103F20007F916F915F914F913F912F910F900FBEB5
:103F30000F901F9018951F920F920FB60F92112499
:103F40002F938F939F93EF93FF93E0913304F0911E
:103F500034048081E0913904F0913A0482FD12C06A
:103F6000908180913C048F5F8F7320913D04821774
:103F700051F0E0913C04F0E0ED5DFB4F958F8093B4
:103F80003C0401C08081FF91EF919F918F912F910F
:103F90000F900FBE0F901F901895FC01A5A1B6A120
:103FA0009C9182A589238C93A5A1B6A19C9181A502
:103FB000892B8C9308952F923F924F925F926F922C
:103FC0007F928F929F92AF92BF92CF92DF92EF92A9
:103FD000FF920F931F93CF93DF93CDB7DEB72E974A
:103FE0000FB6F894DEBF0FBECDBF9E878D873B0115
:103FF00029019A01200F311F3A8329838A80912C4D
:1040000022242A94322CCB01840F951F98878F830A
:10401000D201A00FB11FBA87A987F701EC0DFD1DD2
:10402000FC87EB87AD85BE8518968C9118979816FE
:1040300008F03FC114963C922E92139715968D91DD
:104040009C911697DC01ED91FC910190F081E02D9F
:104050006FEF09956FEF8D859E850E947812ED8533
:10406000FE8585819681DC01ED91FC910190F081C6
:10407000E02DAD85BE856C910995ED85FE8560814D
:10408000CF010E947812AD85BE8515968D919C91C9
:104090001697DC01ED91FC910190F081E02D682DE7
:1040A0000995682D8D859E850E947812ED85FE8587
:1040B00085819681DC01ED91FC910190F081E02DEC
:1040C0006981099569818D859E850E9478125301C9
:1040D000EF81F885AE16BF06C1F0AD85BE85159699
:1040E0008D919C9116978501DC01ED91FC910190D9
:1040F000F081E02DD5016D915D010995F801608198
:104100008D859E850E947812E3CF8201AD85BE85A4
:1041100015968D919C911697E985FA850E171F07C4
:1041200091F05801DC01ED91FC910190F081E02DBE
:10413000D8016D918D010995F50160818D859E8570
:104140000E947812E3CFAD85BE8514966C91DC0198
:10415000ED91FC910190F081E02D0995ED85FE85B2
:1041600085819681DC01ED91FC910190F081E02D3B
:10417000AD85BE8513966C91099568EC70E08D85D0
:104180009E850E9433128F3F910509F086C0ED8510
:10419000FE85348223826FEFCF010E94781265E0A2
:1041A00070E08D859E850E943312AD85BE856C9131
:1041B000262F30E08217930709F06FC0CD010E94CF
:1041C00078126AE070E08D859E850E9433125C0152
:1041D00097FD63C0682F8D859E850E9478126AE0E6
:1041E00070E08D859E850E9433128C0197FD55C02D
:1041F000682F8D859E850E947812AC821B82EB8190
:10420000FC810E0F1F1F57019701200F311F3E83A6
:104210002D838D819E81A816B906C1F0AB85BC8522
:10422000AA16BB0699F065E070E08D859E850E9418
:10423000331297FD07C0F5018083682F8D859E8519
:104240000E947812FFEFAF1ABF0AE3CF65E070E07B
:104250008D859E850E9433125C0197FD1EC065E02E
:1042600070E08D859E850E94331297FD16C0BA2C92
:10427000AA248A0D9B1DAD85BE8513962D913C9178
:1042800014978217930749F48C918F5F8C93C80120
:10429000C016D10680F4C6010EC0939464E670E0A7
:1042A00080E090E00E94371A8D859E850E9428113B
:1042B000B9CE8FEF9FEF2E960FB6F894DEBF0FBEEC
:1042C000CDBFDF91CF911F910F91FF90EF90DF90C5
:1042D000CF90BF90AF909F908F907F906F905F90A6
:1042E0004F903F902F900895AF92BF92CF92DF9260
:1042F000EF92FF920F931F93CF93DF9300D01F9203
:10430000CDB7DEB7FC01248521112FC05C011586D5
:1043100087E489838FE38B83E75AFF4F80818A8309
:104320007501F0E1EF0EF11CF501E05BFF4F80E459
:10433000C82ED12C00E010E020E030E043E050E057
:10434000BE016F5F7F4F808191810E94DB1F9C01C6
:1043500021503109F5012E3F3F4F10F0148605C062
:1043600095859F5F9587815084870F900F900F9060
:10437000DF91CF911F910F91FF90EF90DF90CF9041
:10438000BF90AF900895AF92BF92CF92DF92EF921D
:10439000FF920F931F93CF93DF9300D01F92CDB75F
:1043A000DEB75C0128E5A20EB11CF50120812F3F8C
:1043B000E1F026E62983319620812A833997CC249F
:1043C000C394D12CCE0103967C0100E010E020E0E4
:1043D00030E042E050E0BE016F5F7F4F808191810D
:1043E0000E94DB1F8FEFF50180830F900F900F90DD
:1043F000DF91CF911F910F91FF90EF90DF90CF90C1
:10440000BF90AF9008958F929F92AF92BF920F93FB
:104410001F93CF93DF93CDB7DEB7A1970FB6F89474
:10442000DEBF0FBECDBF19A2423008F44AE08E01B4
:104430000F5D1F4F842E912CA12CB12CA50194014E
:104440000E94E42FE62FB901CA0101501109EA3098
:1044500014F4E05D01C0E95CD801EC93232B242B1C
:10446000252B61F7B80188ED94E00E944A1FA196C0
:104470000FB6F894DEBF0FBECDBFDF91CF911F9175
:104480000F91BF90AF909F908F900895CF92DF9241
:10449000EF92FF92CF93DF936B017C016DE288ED89
:1044A00094E00E94F808EC0166277727CB016C198D
:1044B0007D098E099F094AE00E9403228C0F9D1FEF
:1044C000DF91CF91FF90EF90DF90CF9008950F9301
:1044D0001F93CF93DF93EC018B01FB0182819381CA
:1044E0009B838A8384819581A681B7818C839D83F8
:1044F000AE83BF8380859185A285B38588879987A0
:10450000AA87BB878FE291E09983888384858C8713
:1045100085858D87868597859F878E8780E47096B1
:10452000DE01509601900D928A95E1F7FB01E05B68
:10453000FF4F80819181FE01E05BFF4F918380837B
:104540006E5A7F4FCE018E5A9F4F0E94F71EF80180
:10455000E85AFF4F8081FE01E85AFF4F8083F8013F
:10456000E75AFF4F8081C75ADF4F8883DF91CF9191
:104570001F910F91089585ED8093BC008091BC0040
:1045800084FDFCCF1092B60308954091CD05262FEF
:1045900030E0240F311D21323105DCF42091B603C7
:1045A0002430C9F4FC0180E090E0861758F4309183
:1045B000CD052191DC01A355BA4FA30FB11D2C935A
:1045C0000196F3CF8091CD05680F6093CD0580E013
:1045D000089581E0089582E008950895089508956A
:1045E000E0916F0380916E03E81730F4F0E0E0593A
:1045F000FC4F808190E008958FEF9FEF0895909198
:104600006F0380916E03981750F4E92FF0E0E059A2
:10461000FC4F208130E09F5F90936F0302C02FEF2B
:104620003FEFC901089580916E0390E020916F03E0
:10463000821B91090895CF92DF92EF92FF920F9320
:104640001F93CF93DF937C01CB018A012091B703A5
:10465000222389F0EB016B01C40ED51ECC15DD05BC
:1046600069F06991D701ED91FC910190F081E02D05
:10467000C7010995F3CF642F0E94C522C801DF91BD
:10468000CF911F910F91FF90EF90DF90CF90089501
:10469000CF93DF931F92CDB7DEB769832091B70325
:1046A0002223D1F02091DA03203240F021E030E0E3
:1046B000FC013383228380E090E015C08091B80331
:1046C000E82FF0E0E754FC4F998190838F5F80934F
:1046D000B8038093DA0305C061E0CE0101960E9421
:1046E000C52281E090E00F90DF91CF9108952F9245
:1046F0003F924F925F926F927F928F929F92AF9272
:10470000BF92CF92DF92EF92FF920F931F93CF93BE
:10471000DF93CDB7DEB76B970FB6F894DEBF0FBE51
:10472000CDBF9B8F8A8F1B014A01D22E1987088724
:104730003701A982DC0159962D913C915A97211598
:10474000310509F0FFC018968D919C911997681753
:1047500079070CF0E7C11A968D919C911B97481729
:1047600059070CF0DFC1EC2DF0E0FB83EA839B01DD
:1047700046E0C49E200D311D11243D872C87121662
:1047800013060CF0CFC16A2D70E07B876A8783E047
:10479000660F771F8A95E1F77F876E87CB01880DBB
:1047A000991D181619060CF0BDC158968C918111EF
:1047B00004C08FEA8D1508F4D394AA8DBB8DED91BA
:1047C000FC9111970284F385E02DCD010995B5E0A8
:1047D000DB9EC0011124EC2DF0E0F98BE88B9101F8
:1047E0002B5F3F4F3B8B2A8B3D822C822101AC01FA
:1047F000421953095D8B4C8B7981672F70E07F8B59
:104800006E8BC4010896998F888FEC89FD89E40D21
:10481000F51DE655FD4FD49054019F828E82D0FE47
:1048200016C0AA8DBB8DED91FC91B1E0CB1209C0F1
:104830002981213031F40484F585E02D28853985DE
:1048400019C00684F785E02DE884F9841DC04885E9
:1048500059854615570519F1AA8DBB8DED91FC912F
:10486000B1E0CB120DC02981213051F40484F585CB
:10487000E02D9301A501B2018A8D9B8D09950FC092
:104880000684F785E02D73010A851B852A813B810B
:104890004E815F816C817D818A8D9B8D0995D69437
:1048A0003FEFA31AB30A4E815F816E897F89460F5D
:1048B000571F5F834E83888D998DA816B90609F01E
:1048C000AECF9FEF491A590AAC81BD81E889F989B9
:1048D000AE0FBF1FBD83AC832A893B8942165306A6
:1048E00009F093CF488559854615570509F4F8C056
:1048F000AA8DBB8DED91FC91B1E0CB1211C0298145
:10490000213071F4B1016B5F7F4F0088F189E02D98
:10491000830128E030E0A4018A8D9B8D0995E0C0D9
:104920006C857D854A815B81641B750B0684F785E8
:10493000E02D73010E851F859A01A4018A8D9B8D40
:104940000995CEC0F9013496E491DE1AF901329648
:1049500085919491B7E0DB9E800D911D1124F901A2
:10496000259134913B8B2A8BFC012591349159017F
:10497000FC0132965490319634913C873296749073
:104980003196149141E04C1518F05981523068F07D
:10499000672D072C000C770B7D836C83812F012EF4
:1049A000000C990B9B838A8304C01B821A821D8290
:1049B0001C82AA8DBB8DED91FC9111970284F38529
:1049C000E02DCD010995412CD12C612CF981EF2FDF
:1049D000F0E0FF83EE832C2D30E03B872A87A40193
:1049E000410F511D17FD5A955F8B4E8BB101670D1D
:1049F000711D77FC7A95798F688F7C85671608F032
:104A00006FC0262D30E04A815B81420F531FAE817B
:104A1000BF81A49FC001A59F900DB49F900D11244C
:104A2000F401E80FF91FF98BE88B842D712C4E8966
:104A30005F89420F531F5D8B4C8B751408F04DC07E
:104A400051E0580F5E87877041F4C5010196EA89ED
:104A5000FB89EA0DFB1DD4905C01D7FE3AC061E0F2
:104A6000C61216C07981713099F4AA8DBB8DED9173
:104A7000FC9111970484F585E02D288539854C89B2
:104A80005D89688D798D670D711DCD01099521C0F6
:104A90008C819D81870D911DEA85FB858E9FB001DC
:104AA0008F9F700D9E9F700D1124620D731DAA8D36
:104AB000BB8DED91FC9111970684F785E02DE8847C
:104AC000F9840E811F812A853B8548895989CD014A
:104AD0000995DD0C73948E85B0CF450C63948DCF12
:104AE000AA8DBB8DED91FC9111970688F789E02D79
:104AF000CD016B960FB6F894DEBF0FBECDBFDF9130
:104B0000CF911F910F91FF90EF90DF90CF90BF90CA
:104B1000AF909F908F907F906F905F904F903F905D
:104B20002F9009946B960FB6F894DEBF0FBECDBFE1
:104B3000DF91CF911F910F91FF90EF90DF90CF9079
:104B4000BF90AF909F908F907F906F905F904F90AD
:104B50003F902F9008952091A005211103C08FEF61
:104B60009FEF08955FB7F89422E02093E900209129
:104B7000F20030E01216130614F421E030E0422F68
:104B8000FC0184E6415038F0289880939F0590916D
:104B9000F1009193F7CF2115310521F08091F200BA
:104BA000882319F05FBFC90108958BE68093E80060
:104BB000F9CF2FB7F89483E08093E9009091E80053
:104BC000892F807295FF04C09091F20080E4891BC8
:104BD0002FBF08951F920F920FB60F9211242F939B
:104BE0003F934F935F936F937F938F939F93AF9375
:104BF000BF93EF93FF938091B900887F803609F4CB
:104C00009CC068F5883209F45BC090F4803109F4E7
:104C100054C038F4882309F4F6C0883009F44DC034
:104C2000F6C0883109F44CC0803209F45DC0EFC091
:104C3000803409F468C048F4803309F455C08833DF
:104C400009F0E5C08093B403D8C0803509F44FC0A3
:104C5000883509F45DC0883409F0D9C0D6C08839D8
:104C600009F4C7C0A8F4883709F467C038F4883657
:104C700009F463C0803709F460C0C9C0883809F4FA
:104C8000B8C0803909F45FC0803809F0C0C05BC08B
:104C9000803B09F486C038F4803A09F466C0883A4B
:104CA00009F47FC0B4C0803C09F4A7C0883C09F473
:104CB000A4C0883B09F48AC0AAC08091910310C0A7
:104CC0009091B3038091B203981770F5E091B3030C
:104CD00081E08E0F8093B303F0E0EE56FC4F8081AD
:104CE0008093BB0085EC86C08093B4038EC0E091B6
:104CF000B30381E08E0F8093B3038091BB00F0E09B
:104D0000EE56FC4F80839091B3038091B2036EC046
:104D1000E091B30381E08E0F8093B3038091BB00D9
:104D2000F0E0EE56FC4F80838091B50381116DC099
:104D300081E08093900384EA61C083E08093B603AE
:104D40001092EF05CFCF8091EF05803208F051C06F
:104D5000E091EF0581E08E0F8093EF058091BB001D
:104D6000F0E0E153FA4F8083BDCF85EC8093BC0027
:104D70001092B6038091EF05803230F4E091EF0598
:104D8000F0E0E153FA4F10826091EF0570E0E0919E
:104D90009D05F0919E058FEC95E009951092EF0529
:104DA00036C084E08093B6031092CE051092CD05F4
:104DB000E0919B05F0919C0509958091CD058111AD
:104DC00005C081E08093CD051092AD05E091CE0540
:104DD00081E08E0F8093CE05F0E0E355FA4F80819D
:104DE0008093BB009091CE058091CD05981708F473
:104DF00079CF85E88093BC000AC085EC8093BC0025
:104E00001092B60304C01092B4030E94BB22FF911B
:104E1000EF91BF91AF919F918F917F916F915F9132
:104E20004F913F912F910F900FBE0F901F901895AB
:104E30008091A50581110DC082E08093A10584E0D9
:104E40008093A2051092A4051092A30581E080939F
:104E5000A50581EA95E00895DF92EF92FF920F9306
:104E60001F93CF93DF93D82EF92EE42E062F10E058
:104E7000C8010196880F0E940D1683E00E940D164E
:104E8000CD2DDF2D0C0F1D1FC017D10789F0E7FEB8
:104E900003C0FE01849101C088810E940D16F82E86
:104EA00080E00E940D168F2121968111EDCF01C067
:104EB00081E0DF91CF911F910F91FF90EF90DF90F4
:104EC0000895CF93DF93CDB7DEB762970FB6F8940E
:104ED000DEBF0FBECDBF789484B5826084BD84B53B
:104EE000816084BD85B5826085BD85B5816085BDE5
:104EF00080916E00816080936E001092810080919D
:104F00008100826080938100809181008160809324
:104F10008100809180008160809380008091910069
:104F200082608093910080919100816080939100D4
:104F3000809190008160809390008091C100846096
:104F40008093C1008091C10082608093C1008091F4
:104F5000C10081608093C1008091C3008160809313
:104F6000C3008091C00082608093C0008091C20025
:104F700081608093C20080917A00846080937A007F
:104F800080917A00826080937A0080917A008160BB
:104F900080937A0080917A00806880937A001092E2
:104FA000A0051092DB031092DC038091D700816092
:104FB0008093D70080EA8093D80089B5806189BD4D
:104FC00089B5826089BD09B400FEFDCF61E070E063
:104FD00080E090E00E94371A8091D8008F7C806139
:104FE0008093D8008091E000807F8093E0008091E2
:104FF000E1008E7E8093E1008DE08093E200559A7F
:10500000209AE091C904F091CA04A089B18982E094
:105010008C93A485B5851C92A685B78587E08C9373
:10502000108EA489B58986E08C93A289B3898C916E
:1050300080618C93A289B3898C9188608C93A289BA
:10504000B3898C9180688C930288F389E02D8081EC
:105050008F7D80838091C704811107C081E0809398
:10506000C70480EC94E00E94441180913F05909128
:105070004005FC012781211104C021E027830E9403
:1050800044110E94540D80E290E00E94BE30909343
:1050900044058093430561E173E083E395E00E945A
:1050A000631F10926F0310926E031092B803109258
:1050B000DA031092B60311E01093B5031092900337
:1050C00061E082E00E94971961E083E00E949719F5
:1050D0008091B9008E7F8093B9008091B9008D7F57
:1050E0008093B90088E48093B80085E48093BC0085
:1050F0008DEE92E290939C0580939B058EEE92E25A
:1051000090939E0580939D051093B70388E3809349
:10511000D9031092B8031092DA0360E885E194E0B5
:105120000E94482360E885E194E00E94482381E0E2
:105130000E949C0C88EA0E94F80C813149F483EAB1
:105140000E94F80C863059F0863349F0843639F0E5
:1051500064E273E083E395E00E94631FFFCF6AE49B
:1051600073E083E395E00E94631F40E050E0BA01E2
:1051700088ED94E00E94FA1C62E088ED94E00E94C1
:10518000C91C8091E2049091E30497FD01969595E6
:10519000879590930C0480930B048091E004909188
:1051A000E10490930A048093090482E08093EC0464
:1051B0008093ED0480EE97E09093EB048093EA04F3
:1051C0009093E9048093E8046EE573E088ED94E041
:1051D0000E94631F05E010E060E273E088ED94E058
:1051E0000E944A1F68EE73E080E090E00E94371A48
:1051F0000150110989F75524539439E0432E42E0B8
:10520000842E912C66246394712C60EEC62E67E088
:10521000D62EAA24AA94BA2C2FB7F894809105040C
:1052200090910604A0910704B09108042FBF40910B
:105230000D0150910E0160910F0170911001841BBE
:10524000950BA60BB70B813C9742A940B10508F41A
:105250005FC050920C012FB7F89480910504909193
:105260000604A0910704B09108042FBF80930D019C
:1052700090930E01A0930F01B093100160E070E0D5
:1052800088ED94E00E94E3041092E5041092E40497
:105290001092E7041092E6040E9439150E94171438
:1052A0000E9439130E948F121A8219821C821B825B
:1052B0001E821D8265EE71E0CE0101960E94921E53
:1052C000CE0101960E94730BCE0101960E94F21E40
:1052D00069E070E08091E3039091E4030E948C0BFD
:1052E0004092EC044092ED0488ED94E00E945F1F30
:1052F00065E070E08091E5039091E6030E948C0BDD
:1053000065E070E08091E7039091E8030E948C0BC8
:1053100082E00E94F80C81508230C0F450920C015F
:1053200080910D0490910E048130910559F028F080
:1053300010920E0410920D0409C070920E04609237
:105340000D0404C090920E0480920D0480910C0113
:10535000882309F4B5C100910B0410910C0420912D
:10536000090430910A04A8014E5F5F4FE12CF12C33
:1053700060E070E088ED94E00E947C0780910B046F
:1053800090910C0402961092E5041092E40490931C
:10539000E7048093E60480910D0490910E0481301F
:1053A000910509F4E6C008F447C0029709F086C1E8
:1053B0005092EC045092ED0488ED94E00E945F1F3F
:1053C0001A8219821C821B821E821D8260ED71E08E
:1053D000CE0101960E94921ECE0101960E94730B8F
:1053E000CE0101960E94F21E65E070E080910304F8
:1053F000909104040E948C0B63ED71E088ED94E0C1
:105400000E944A1FB092EB04A092EA04B092E90411
:10541000A092E80485E08093EC048093ED048091F1
:10542000FF03909100040E94520B62E273E088ED4A
:1054300094E00E94631F42C16CE673E0CE010796C0
:105440000E94111FD092EB04C092EA04D092E904AA
:10545000C092E80483E08093EC048093ED0462EB57
:1054600071E088ED94E00E94261F6091EF03709137
:10547000F003072E000C880B990B97FF03C00E94C6
:10548000462203C04AE00E94032262E273E088EDF4
:1054900094E00E94631F8BE195E00E94601E161647
:1054A0001706180619060CF04BC06BE175E0CE012B
:1054B00001960E94F71ECE0101960E94601E66347E
:1054C00071055CF4623371056CF46E3171057CF426
:1054D00080EE97E0A0E0B0E00EC080E098EFA0E0A2
:1054E000B0E009C080EE9FEFA0E0B0E004C08FEF15
:1054F0009FEFA0E0B0E09093EB048093EA049093D8
:10550000E9048093E804CE0101960E94F21E83E034
:105510008093EC048093ED046CEB71E088ED94E0F3
:105520000E94261F8BE195E00E945C0B6AEB71E004
:1055300088ED94E00E94261F88ED94E00E945F1F92
:10554000D092EB04C092EA04D092E904C092E8043D
:1055500061E275E0CE0101960E94F71ECE01019630
:105560000E94670ECE0101960E94F21ECE010796A0
:10557000A3C01A8219821C821B821E821D826AEDC0
:1055800071E0CE0101960E94921ECE0101960E940A
:10559000730BCE0101960E94F21E6CE673E0CE0101
:1055A0000D960E94111F6CE673E0CE0107960E94D3
:1055B000111F65E070E08091F1039091F2030E9469
:1055C0008C0B65E070E08091F3039091F4030E94EE
:1055D0008C0B85E08093EC048093ED0488ED94E0DF
:1055E0000E945F1F87E295E00E94601E1616170654
:1055F000180619060CF04CC0BE01635F7F4FCE0148
:1056000001960E94F71ECE0101960E94601E66342C
:1056100071055CF4623371056CF46E3171057CF4D4
:1056200080EE97E0A0E0B0E00EC080E098EFA0E050
:10563000B0E009C080EE9FEFA0E0B0E004C08FEFC3
:105640009FEFA0E0B0E09093EB048093EA04909386
:10565000E9048093E804CE0101960E94F21E83E0E3
:105660008093EC048093ED0467EC71E088ED94E0A6
:105670000E94261F87E295E00E945C0B65EC71E0BA
:1056800088ED94E00E94261F88ED94E00E945F1F41
:105690006DE275E0CE0101960E94F71ECE010196E3
:1056A0000E94670ECE0101960E94F21ECE0107965F
:1056B0000E94F21ECE010D960E94F21E10920C0165
:1056C0000E94681CA9CD8DE295E00E94F21E87E23F
:1056D00095E00E94F21E81E295E00E94F21E8BE1AD
:1056E00095E00E94F21E85EC91E090933405809342
:1056F00033050C94540DCF93DF93E5E1F4E013826E
:10570000128248EE53E060E070E044835583668384
:10571000778381E491E091838083EAE4F5E013826A
:105720001282448355836683778383E591E0918376
:1057300080832FEF3FEF35872487E3E2F4E0138285
:105740001282448355836683778385E691E0918353
:1057500080838DEC90E0958784878CEC90E0978730
:10576000868788EC90E0918B808B89EC90E0938B1E
:10577000828B8AEC90E0958B848B8EEC90E0978BFB
:10578000868B118E128E138E148EC0ECD4E0D093C3
:105790002204C0932104A3E3B5E013961C921E9249
:1057A000129714964D935D936D937C93179785ECA8
:1057B00091E011969C938E931D96DC93CE931C974B
:1057C0001E961C921E971F961C921F9751961C9214
:1057D0001E92509781E052968C931882FE83ED833F
:1057E0001F821886FA87E987A8EDB4E013961C9209
:1057F0001E92129760EF70E015967C936E9314974B
:1058000040E451E017965C934E93169719967C935B
:105810006E9318971B965C934E931A9756961C920C
:1058200056971D961C921E921C971F961C921E92B4
:105830001E9755968C93559754968C9354975396E0
:105840003C932E93529751963C932E935097579694
:105850008C93579758961C9258975A961C921E9262
:105860005997D5961C92D5978FEFD6968C93D6974D
:105870008AE0D7968C93D79789E0D8968C93D8975F
:10588000DA961C921E92D997DC961C921E92DB9798
:10589000DD961C92DD97DE961C92DE97109217051E
:1058A000109218051092190510921A058AE995E0D0
:1058B00090969C938E935F97E4E9F2E0E491F0E098
:1058C000EE0FFF1FE358FD4F859194915E969C93D8
:1058D0008E935D97E7E6F2E08491D3968C93D3970D
:1058E000E5E9F2E0E491F0E0EE0FFF1FE358FD4F31
:1058F000259134915C963C932E935B97E8E6F2E019
:10590000E491D196EC93D197E095D296EC93D2970F
:10591000E82FE095D496EC93D49785E991E08D93A8
:105920009C931092CB046CE673E08BE195E00E94AF
:10593000111F6CE673E081E295E00E94111F6CE696
:1059400073E087E295E00E94111F6CE673E08DE240
:1059500095E0DF91CF910C94111F662777270C9467
:10596000FD2C1F93FC0199278827BC01E894119115
:105970001032E9F3193010F01E30C8F31B3251F029
:105980001D3249F4689406C00E94E82C610F711D15
:10599000811D911D119110531A30B0F33EF4909572
:1059A0008095709561957F4F8F4F9F4F1F91089500
:1059B000FB01DC0105900D920020E1F70895FC0148
:1059C00005900020E9F7809590958E0F9F1F089510
:1059D000592F482F372F262F660F771F881F991FA3
:1059E000660F771F881F991F620F731F841F951FF3
:1059F000660F771F881F991F0895A0E0B0E0E3E0CD
:105A0000FDE20C94A42FEC016B016115710519F0F6
:105A1000FB01918380837E01FFEFEF1AFF0A08816B
:105A2000802F90E00E944B2E892B11F0E701F3CFDD
:105A30000D3239F47E0182E0E80EF11C098111E09B
:105A400008C00B3229F47E0192E0E90EF11C0981B5
:105A500010E0E701219743E050E062ED70E0CE01F5
:105A60000E94542E892BC1F4239645E050E06DEC42
:105A700070E0CE010E94542E892B09F42596C114A2
:105A8000D10419F0F601D183C0831111F6C060E092
:105A900070E080E89FE7FAC043E050E06AEC70E015
:105AA000CE010E94542E892B59F4C114D10409F45B
:105AB000E9C0F2E0EF0EF11CF601F182E082E2C0F3
:105AC00020E030E0A901C0E0D0E0F70180EDA82E91
:105AD000A00E89E08A1530F1912F9260B92E812FA6
